:020000040000FA
:2000000002000602030375D000759F00758F1075814712067DE4FFFE12026712001F328052
:20002000FE22E0020121120066A322120167F022748CF0A322748DF0A322748EF0A322743D
:200040008FF0A3227497F0A322898288832212019202004912016704F02212016014F0224B
:2000600012016714F022F0A37419F022F0A37428F0221201837401F0221201837402F02232
:200080001201837403F02212017C7404F0221201837405F0221201837406F02212018374DB
:2000A00007F02212016E7409F0221201757409F02212017C740BF022120183740BF02212A7
:2000C0000175740EF0221201607410F0221201607411F0221201527411F022120159741413
:2000E000F02212016E7423F0221200267423F02212017C7424F02212017C7425F02212015D
:20010000837426F0221201837427F0221200267429F022120183742BF022120289E40201BB
:20012000A212019AEF2400228B828A83E0FC22F0A3741902006CF0A3741A02006CF0A374FF
:200140001B02006CF0A3741C02006CF0A3740EF0A322F0A3740FF0A322F0A37410F0A32224
:20016000F0A37413F0A322F0A37414F0A322F0A37418F0A322F0A3741AF0A322F0A3741B14
:20018000F0A322F0A3741CF0A3221201287422D39C228B828A83741AF022FF7D057E0002B5
:2001A0000237F07A051201E2DAFB22F0A3741DF0A3E4F022F0A3741EF0A3E4F022F0A37449
:2001C0001FF0A3E4F022EB29F9EA38F80200492582F58250020583221207A6120394750B03
:2001E000002278FF790000D8FDD9FB22EF2582F582EE3583F58322FAEB2536FBE43AFA0280
:20020000018A1201EC7422F01200497E03221201D8E4F512F51175090022E50F12019A8F24
:20022000018E00E9240022BF2B0C8D418B4275430175442B050C22ED540F600AFDEF25E0F4
:20024000CE33CEDDF9FF22120192E92536F9E438F8120049ECF022AF381202782536F9E4DE
:2002600038F889038802227509001202B21201D81201E212055E80FB90000075F0207E006F
:2002800012029BA982A883E922E50F120121F9EE3400F8120049E5100201CFC0F0EFA42589
:2002A00082F582E58335F0F583D0F0EEA42583F5832275A88175B8017588019020007401BD
:2002C000F0A374FFF01201E2902000E4F075900022E4F07C051201E2DCFB050FE510F53A2F
:2002E00075390012021AFDE83400FC8D828C83AF3AAE391201EC741AF01201C6AF3AAE39F9
:200300000201ECC0E0C082C083C000C0D075D00075A800902001E0F8B4E009E5087005751A
:2003200015E08013E515B4E00EE864F06009E5087005881675080175A881D0D0D000D08315
:20034000D082D0E03212011A150F120289741A1201A212011A050FE510F53A753900120211
:200360001AFBE83400FA8B828A83AF3AAE391201EC741AF07BE07AFF1201C6AF3AAE39125C
:2003800001EC1202D11202D11202D11202D17422F002020E790078007A2089058804E92492
:2003A00020F9E438F87B208D828C83E4F00DBD00010CDBF3DAE4790078007A201200497EBC
:2003C000037FA01202027FC01202027FE01201EC7422F009B9000108DAE27B007A04753C7B
:2003E00002753B04753E01753D041201287420D39C4040853C82853B83E0F5F0853E82850A
:200400003D83120022F9EE3400F8120049EC1201CFE5F0F0E53E2403F53EE4353DF53DE5FD
:200420003C2403F53CE4353BF53BEB2403FBE43AFA80B7750F0375101C751300751400907F
:200440000383741AF022753A007539007F1D8F3DE4F9F8AB3AAA39E53A2420F53AE4353930
:20046000F5398B058A040DBD00010C8B3C8A3B75F020B91F11B8000E8B828A837E007F1F63
:200480001201ECE4800B8D828C83E0853C82853B83F00DBD00010C053CE53C7002053B0986
:2004A000B900010815F0E5F070C8AF3D1F8F3DBF009E753A00753904753C02753B047F01EC
:2004C0008F407F048F3F79F2E509FB7A00853A82853983E0FD7C00EB2420FFE43AFEEDC359
:2004E0009FEC9E30D202B2E730E772EB241FFFE43AFEEDB5073FECB5063B853C82853B8314
:20050000E0F8642B6026EDC39BFBEC9AAF40AE3FFA8F828E83120022FDEE3400FC8D828C40
:20052000838B078A061201ECE8F080097D058D037F2B120227E53A2403F53AE43539F539CA
:20054000E53C2403F53CE4353BF53BE5402403F540E4353FF53FD90280030204C822753896
:20056000FF853836E508B40102800302067B7800A90FAA107D007C007B1D75F0008D078CDF
:2005800006ED2420FDE43CFC7537208F828E83E0B41A0985F0368838A900AAF00FBF0001E9
:2005A0000E05F01537E53770E208DBCE8A10890FE53804700302067BE53604700302067B6F
:2005C000A9167816B6751AAF38120278C39420FBE894001201F750030206631202470206FD
:2005E00063B9721B741CD395384078AF381202782420FBE4381201F740691202478064B9F1
:200600006B141202571BBBFF011A12018A405412004EECF0804DE516B47448A936780009FB
:20062000B9000108E924E1E86480347F40301202570BBB00010A120128700712004EE4F0F9
:2006400080217422D39C400EAD148C14120049EDF0120192800DBC2B0A12034580050509FD
:20066000120446902002E50BF0050BA3741AF07508007515007516007517002222900FEB6F
:20068000E49360F8FFA3E493A3FEE493A3F8E493A3F9E493A3FAE493A3FBE493A3FCE493F6
:2006A000FDA3EE54017046EF64016033EF6403602EBF09028029BF0407AE83AF82020763CB
:2006C000BF06028021AE83AF8288838982E4F0A31DBDFF011CEC4D70F48E838F8280A1E409
:2006E000F709DDFB809AE4F309DDFB8093EF64016045EF64036040BF0902803BBF040AAE4E
:2007000083AF828A838B82805ABF0602803FAE83AF828A838B82E493A3AA83AB8288838927
:2007200082F0A3A883A9821DBDFF011CEC4D70E28E838F82020680AE83AF828A838B82E4C3
:2007400093F709A3DDF98E838F82020680AE83AF828A838B82E493F309A3DDF98E838F8259
:20076000020680E975F008842420F8E6FCE5F06005CC03DCFDCCBD0014E954076006EC03E1
:20078000FC0980F5ECF68E838F82020680EB4A6003E493A3C36001D3EC13FC091DE9540745
:2007A00070D4ECF680BD90040074081200C6900403740812006090040674091200CD9004DF
:2007C00009740912002B90040C740A12005A90040F740A120054900412740B120072900408
:2007E00015740C120079900418740D12007990041B740E12007990041E740F12008090040A
:2008000021741012010C900424741012008E900427741112008790042A74111200959004E1
:200820002D741212009C90043074141200E990043374151200E990043674161200E99004E2
:2008400039741612011390043C741712010C90043F7418F0A304F0A37423F0900442741CBF
:20086000F0A314F0A37424F0900445741CF0A3F0A37426F0900448741D1200F790044B74D4
:200880001DF0A314F0A37427F090044E741F1200C6900451741F12006090045474201200B1
:2008A000CD900457742012002B90045A74211200CD90045D742112002B90046074221200EE
:2008C0005A900463742212005490046674261201757424F0900469742612017C7426F090E7
:2008E000046C1200FE90046F041201757425F0900472742712017C7427F090047512010584
:20090000900478742912011390047B742D1200F090047E742D1200FE900481742E1200F7D3
:20092000900484742E12010590048774331201AB90048A74331201B490048D74331201BD41
:2009400090049074341201AB90049374341201B490049674341201BD900499743712007279
:2009600090049C743812007990049F74391200799004A2743A1200799004A5743B120080BC
:200980009004A874401201139004AB744412010C9004AE744512017C742CF09004B1744513
:2009A000120183742DF09004B4744812010C9004B7744B12010C9004BA74551201449004C2
:2009C000BD745612013D9004C074561201449004C374571201369004C6745712013D900457
:2009E000C974571201449004CC745812012F9004CF74581201369004D2745812013D900410
:200A0000D574581201449004D874591200799004DB745A1200799004DE745B12012F90043B
:200A2000E1745B1201369004E4745B12013D9004E7745B1201449004EA745C12013690045A
:200A4000ED745C12013D9004F0745C1201449004F3745D12013D9004F6745D1201449004F0
:200A6000F9745E1201449004FC745F12008E9004FF746012017C7405F09005027460120075
:200A80009590050574611201757404F0900508746112017C7406F090050B7461120095904B
:200AA000050E746212017C7407F090051174621200959005147463120144900517746412C3
:200AC000013D90051A746412014490051D7465120136900520746512013D900523746512A5
:200AE0000144900526746612012F900529746612013690052C746612013D90052F7466125E
:200B00000144900532746712012F9005357467120136900538746712013D90053B74671209
:200B2000014490053E74681201AB90054174681201B490054474681201BD9005477469123A
:200B400001AB90054A74691201B490054D74691201BD900550746A12012F900553746A12FA
:200B60000136900556746A12013D900559746A12014490055C746B12012F90055F746B120B
:200B80000136900562746B12013D900565746B120144900568746C12013690056B746C12B0
:200BA000013D90056E746C120144900571746D12013D900574746D120144900577746E1245
:200BC000014490057A747312014B7410F090057D74731201527413F090058074731200F035
:200BE00090058374731200FE900586747412014B7411F090058974741201527414F0900598
:200C00008C74741200F790058F7474120105900592747512014B7412F09005957475120129
:200C2000527415F090059874791200E290059B747A1200E290059E747B12016E7429F09009
:200C400005A1747C1200E29005A4747D12015204F09005A7747D1201597413F09005B074BE
:200C60007E1200D49005B3747E1200DB9005BC747F1200D49005BF747F1200DB9005C274C0
:200C8000801201527412F09005C574801201597415F09005C874851200F09005CB74851203
:200CA00000FE9005CE74861200F79005D174861201059005D474871201449005D774881223
:200CC000013D9005DA74881201449005DD74891201369005E0748912013D9005E374891213
:200CE00001449005E6748A12012F9005E9748A1201369005EC748A12013D9005EF748A12CC
:200D000001449005F2748BF0A3741812006C9005F5748B12012F9005F8748B120136900536
:200D2000FB748B12013D9005FE748B120144900601120030741712006C900604120030744E
:200D40001812006C900607120030741912006C90060A120030741A12006C90060D12003040
:200D6000741B12006C900610120030741C12006C900613120035741612006C9006161200BA
:200D800035741712006C900619120035741812006C90061C120035741912006C90061F124A
:200DA0000035741A12006C900622120035741B12006C900625120035741C12006C90062818
:200DC00012003A741512006C90062B12003A741612006C90062E12003A741712006C9006FC
:200DE0003112003A741812006C90063412003A741912006C90063712003A741A12006C9096
:200E0000063A12003A741B12006C90063D12003A741C12006C90064012003F741512006CDE
:200E200090064312003F741612006C90064612003F741712006C90064912003F741812007C
:200E40006C90064C12003F741912006C90064F12003F741A12006C90065212003F741B12CC
:200E6000006C90065512003F741C12006C90065874961201677417F090065B120044741301
:200E8000F0A37416F090065E1200447414F0A37418F090066112004474151200669006641C
:200EA0001200447416120066900667120044741712006690066A1200447418F0A304F0908B
:200EC000066D1200447419F0A3F0900670120044741AF0A314F0900673120044741B1200B8
:200EE00066900676120044741C12006C90067974991200C690067C749912006090067F740E
:200F00009A12005A900682749A120054900685749B1200AA900688749B1200B190068B74D4
:200F20009B1200B890068E749C1200A3900691749C120026740AF0900694749C1200BF90EB
:200F40000697749C1200B190069A749C1200B890069D749D1200A39006A0749D120026742B
:200F60000BF09006A3749D1200BF9006A6749D12017C740CF09006A9749D120183740DF0B8
:200F80009006AC749E1200A39006AF749E120026740FF09006B2749E1200BF9006B5749EBE
:200FA0001200B19006B8749E1200B89006BB749F1200AA9006BE749F1200B19006C1749F90
:200FC0001200B89006C474A01200809006C774A112008E9006CA74A21200879006CD74A2AD
:200FE0001200959006D074A302009C010200080000002E05020000000008000502200000C0
:0410000000040000E8
:0400000500000006F1
:00000001FF
